000017933913ndsa002600819012202207200       0001101500000000001195110000000014460830000000000000089954500000002509730000000000000000000001195110000000000000000000400000000000000000000                              0000000000000032280039522890 20220731ncreditoE001Dev. x vencimiento y Rotura       00000000000000000000          0005-01352107                                                                                       
000017933915ndsa002600819013202207200       0001101500000000000723906200000008759266000000000000054487600000001520204000000000000000000000723906200000000000000000400000000000000000000                              0000000000000032280039522890 20220731ncreditoE001Dev. x vencimiento y Rotura       00000000000000000000          0005-01352107                                                                                       
000017933916ndsa002600819014202207200       0001101500000000000165796100000002006133000000000000012479300000000348172000000000000000000000165796100000000000000000400000000000000000000                              0000000000000032280039522890 20220731ncreditoE001Dev. x vencimiento y Rotura       00000000000000000000          R000501352364                                                                                       
000017934199ndsa002600819084202207200       0001101500000000000087736200000001087929000000000000010843800000000184246000000000000000000000087736200000000000000000400000000000000000000                              0000000002632132280039522890 20220731ncreditoE001Dev. x vencimiento y Rotura       00000000000000000000          0005-01352034                                                                                       
000017935259nca 0026008194292022072030C     0001101500000000040197226500000491212280000000000002115643500000084414176000000048258390000040197226500000000000000000403331732000052650956                              0000000000000032280039522890 20220731ncreditoM017NC Anulacion Factura          faa 00240120034000000000                                                                                                              
000103862618faa 0024012003392022072030C     0001101500000000000203889900000002491535000000000000087381400000000428169000000000244670000000203889900000000000000000403331731000052650956349450                        0000000000000032280039522890 20220731factura 0                                     00000000000000000000                                                                                                              
000103862619faa 0024012003402022072030C     0001101500000000040197226500000491212280000000000002115643500000084414176000000048258390000040197226500000000000000000403331732000052650956349450                        0000000000000032280039522890 20220731factura 0                                     00000000000000000000                                                                                                              
000103863095faa 0024012007782022072030C     0001101500000000040197226500000491212280000000000002115643500000084414176000000048258390000040197226500000000000000000403332198000052650956349450                        0000000000000032280039522890 20220731factura 0                                     00000000000000000000                                                                                                              
<<<<CONTROL>>>>000078402022072021070000000000000000006
